:0600000002014B02140393
:03000B0002140BD1
:03001300021413C1
:03001B0002141BB1
:03002300021423A1
:03002B0002142B91
:0300330002009335
:03003B0002143B71
:0300430002144361
:03004B000202436B
:0300530002145341
:03005B0002145B31
:0300630002146321
:03006B0002146B11
:0300730002147301
:03007B0002147BF1
:03008300021483E1
:03008B0002148BD1
:0B009300C0E0E5087005D0E002143367
:05009E00D0E00207BAEA
:0301B00002013E0B
:05013E0012025780FED3
:0301A400750801DA
:0301B30053C6BF71
:0E01B600E5BE30E6FBAFC674C05F4438F5C648
:0901C400743F55C6FFBF38F82254
:0801CD00AF82E4FEFDEF2FFFFD
:0601D5001FEF60118E0413
:0701DB001CECFE60F58D062F
:0801E2001EEEFD60F40080F840
:0101EA0022F2
:0C01EB00901400E0FFBFFF0475820022AA
:0401F70075820122EA
:0E01FB00C2AF759A0075B80075A800121134D5
:0B0209007508001201EBE58270030293
:02021400021BCB
:03021600021400CF
:0202190080FE65
:03021B0012112895
:02021E0080FE60
:0E02200053E4EF43B80275DBE575DA0075E4D0
:02022E00EA22C2
:0402300053B8FD22A0
:0A02340053E4EF7440C0E07402C010
:02023E00E032AC
:030240001201FBAD
:0B024300C0E0E5087005D0E002144B9D
:05024E00D0E0020234C3
:04025300758201228D
:0A025700120253E58270031201FB4E
:070261001201B31211221279
:080268000220120981D2AF123D
:02027000112E4D
:0A02720090F00075F000120DF0127C
:09027C00023090F00075F0001250
:0A0285000CC9E582FF60030203903C
:0E028F0090F00075F000120C7BAE82BE0002F3
:02029D00801CC3
:05029F00BE0102802BEE
:0502A400BE2202802BC8
:0502A900BE23028034B9
:0502AE00BE2402803DAA
:0502B300BE250280538E
:0302B800020384BA
:0D02BB0090F00075F000120E667582301292
:0702C800087712084F80A324
:0502CF001201FB809EFE
:0A02D400120B7175823012087712C8
:0402DE00084F8090B5
:0A02E200120B7B75823012087712B0
:0402EC00084F8082B5
:0A02F00075210090F00075F0001277
:0902FA000CA71209F37582301201
:06030300087712084F020A
:0203090002727E
:0E030B0090F00075F000120C91AD82AE83757B
:0C031900210090F00075F000C006C00547
:0B032500120CA7AC827B007521019038
:0E033000F00075F000C004C003120CA7AA82F2
:0E033E00D003D004D005D0068A017A007408DE
:0B034C0029F9E43AFA89F005F0800678
:06035700EC2CFCEB33FB73
:0E035D00D5F0F775820AC006C005C004C003C3
:0E036B00120877D003D004D005D0068D828E04
:06037900838C2A8B2B127D
:05037F00101B020272D8
:0A03840075823412087712084F0248
:02038E000272F9
:0C03900074302FF58212087712084F021B
:02039C000272EB
:0D039E0090DE077421F090DE097410F090DD
:0603AB00DE0B7404F022D9
:0E03B10090DE0EE4F090DE11E0FF30E101225C
:0E03BF0090F078E0FF90F07FF0EF24DF500622
:0603CD0090F07F7420F0A7
:0E03D30090F0807402F090F07FE0FEBE2002F9
:0203E100800B8F
:0B03E30090F080740AF090F074E4F0D9
:0C03EE0090F078EFC39EF090F07FE0FFED
:0E03FA008F061FEE602A90F075E0FCA3E0FD78
:0E040800A3E0FE8C828D838EF012117CFB909F
:0E041600F07574012CF0E43DA3F0A3EEF0901D
:06042400DE20EBF080D0A9
:0E042A0090DE0EE4F090F080E090DE11F02203
:0C043800AE82AF838F0590F08174AAF0B3
:0A044400A37400F0A37480F08E078B
:0E044E0090F081E0FBA3E0FCA3E0FE8B828C2B
:0A045C00838EF012117CFA70012269
:0E046600C00274012BF8E43CF98E02888289F2
:0C047400838AF012117CF8B505028004A8
:04048000D002803EE8
:0E048400D0028F011FE97036BD021774022BE3
:0E049200FBE43CFC8B828C838EF012117CFB11
:0604A00090F078F08005E9
:0504A60090F078EAF07F
:0E04AB0090F081E0FBA3E0FCA3E0FE90F07572
:0904B900EBF0A3ECF0A3EEF0223D
:0E04C20090F081E0FBA3E0FCA3E0FE8B828CB7
:0E04D000838EF012117CFA90F081EA2BF0E49A
:0904DE003CA3F0A3EEF002044E71
:0E04E70090DE0EE4F090DE16E0FF90F084F060
:0E04F50090F07BE0FEC39F500590F084EEF087
:0C05030090F084E0FF90F07BEEC39FF0CE
:0E050F008F061FEE601F90F07CE0FDA3E0FE63
:0E051D0090DE20E0FC8D828E83F090F07C74E6
:09052B00012DF0E43EA3F080DB99
:0105340022A4
:0E053500AF8290F078E0FE90F07804F0EE24B3
:0A05430079F582E434F0F583EFF05F
:01054D00228B
:0E054E00AF8290F06B7401F090DE0074804F6D
:01055C00F0AE
:09055D0090DE00E0FF20E7F82227
:0D05660090DE0E7405F090DE107408F09029
:0D057300DE12E04401F090DE0E7404F09002
:0C058000DE137408F090DE157401F02208
:08058C0090F07C746CF0A37484
:09059400F0F090F07B7408F01205
:0A059D0004E790F07BE0FF6001220C
:0E05A70090F06CE0FF30E71A90F072E0FDA3D8
:0D05B500E0FE4D600890F0747401F0801FAE
:0705C20090F074E4F08018D2
:0E05C90090F072E0FDA3E0FE4D600890F0742B
:0505D7007402F0800534
:0505DC0090F074E4F052
:0D05E10090DE0EE4F090F074E0FE700890E3
:0705EE00DE117448F08006E5
:0605F50090DE117440F0DD
:0805FB0090F0757479F0A3740F
:0C060300F0F0A3E4F090F078F074605F79
:09060F00FE6009BE20030206D7BB
:0306180002070BCB
:08061B0053071FBF0002800F0E
:06062300BF010302069E68
:06062900BF02030206C03F
:03062F0002070BB4
:0C06320090F06DE0FF6017BF0502802112
:05063E00BF0602802B45
:05064300BF0802803831
:05064800BF0902803F24
:03064D0002070B96
:0D0650007582001205357582001205350215
:02065D00070B89
:0D065F0090F06EE0FEA3E08E8212054E02C8
:02066C00070B7A
:0D066E0090F06EE0FEA3E0FF8E828F8312FD
:05067B00043802070B2A
:0A06800090F07EE0F58212053502CD
:02068A00070B5C
:0D068C0090F06EE0FEA3E090F07EEEF01224
:05069900056602070BDD
:0C069E0090F06DE0FF6005BF0A63800E65
:0E06AA007582001205357582001205358053E9
:0806B800758200120535804B2C
:0906C00090F06DE0FF6002804241
:0E06C9007582001205357582001205358034E9
:0A06D70090F06DE0FFBF20028005E7
:0506E100BF212780127B
:0A06E60090F07B7407F090F07C7434
:0806F00000F0A37400F0801378
:0A06F80090F0787407F090F075742C
:0907020000F0A37400F0A3E4F080
:09070B0090F074E0FFBF0201222E
:0E07140090F072E0FEA3E0FF90F078E0FD7C34
:0D07220000C3EE9DEF9C500590F078EEF0C6
:03072F000203B111
:0907320090F06AE0FF20E00122D2
:0D073B0090F06AE054FEF090DE0EE4F090C5
:0D074800DE11E0FF30E40B90F074E4F0905F
:05075500DE117480F0CC
:0E075A00EF30E20D90F074E4F090DE11E0FE5E
:0307680054FBF04F
:0E076B0090F074E0FEBE010BEF20E107C00726
:050779001203B1D007DE
:0E077E00EF30E03790F074E0FF6005BF022D11
:02078C008003E8
:03078E0002058CD5
:0B0791001204E790F07BE0FF70059081
:04079C00F074E4F021
:0D07A00090DE0EE4F090F074E0FF70079022
:0607AD00DE117448F02289
:0607B30090DE117440F01D
:0107B900221D
:0C07BA00C020C0E0C0F0C082C083C007B7
:0E07C600C006C005C004C003C002C001C000D0
:0D07D400C0D075D000C2E890DE02E0FF90BA
:0E07E100F06AE04FF012073290DE06E0FF30C3
:0507EF00E20312039E6D
:0E07F400D0D0D000D001D002D003D004D00568
:0D080200D006D007D083D082D0F0D0E0D057
:02080F00203295
:0E08110090DE0E7405F090DE11E0FF30E00A7C
:0A081F0090F06AE0FF20E5EA80F6A1
:0108290022AC
:0E082A0090DE0E7405F090DE11E04401F090B7
:0E083800F064E0FEA3E0FF90F066EEF0A3EFA8
:09084600F090F064E4F0A3F0224C
:08084F0090F06BE0FF70012244
:0E08570090F064E0FEA3E0FF4E700E90F0669D
:0B086500E0FEA3E0FFBE4009BF00065C
:0608700012081102082A23
:01087600225F
:0A087700AF8290F06BE0FE700122EA
:0D088100C007120811D00790DE2AEFF0909A
:0E088E00F064E02401F0A3E03400F090F06488
:0E089C00E0FEA3E0FFBE4006BF000302082AF4
:0108AA00222B
:0E08AB0090F068E0FEA3E0FF4E704290DE0E7B
:0E08B9007404F090DE14E0FF20E0047582FF6E
:0108C700220E
:0E08C80090DE17E0FE7F0090DE16E0FD7C0063
:0E08D6004207EC420690F068EFF0A3EEF0EF60
:0E08E4004E701190DE0E7404F090DE14E0549D
:0608F200FEF07582FF22FA
:0D08F80090F068E024FFFEA3E034FFFF90C5
:0D090500F068EEF0A3EFF090DE28E0FF9028
:0E091200F068E0FDA3E0FE4D700E90DE0E7466
:0A09200004F090DE14E0FE54FEF037
:03092A008F822297
:0A092D001208ABAF828F06BFFF0A6D
:0A09370090DE04E0FF20E4EE80F6FD
:030941008E822281
:0D09440043BE8012056612039E439A029086
:0E095100DE06E4F090DE04F090DE02F0C2E874
:01095F002275
:0E09600090DE07E4F090DE09F090DE0BF0531D
:0E096E009AFD90DE06E4F090DE04F090DE02CA
:05097C00F053BE7F22D4
:0A09810090F074E4F090F06AF002C8
:02098B0009441D
:06098D00AD82AE83AFF065
:0E099300C007C006C00512092DAC82D005D0E9
:0A09A10006D0078C03BC0A02801187
:0E09AB008D828E838FF0EB12113AA3AD82AED7
:0309B9008380D761
:0A09BC008D828E838FF0E402113A61
:0609C600AD82AE83AFF02C
:0E09CC008D828E838FF012117CFC60188C825D
:0509DA000DBD00010E3F
:0E09DF00C007C006C005120877D005D006D0AC
:0309ED000780DCA4
:0309F00002084FAB
:0711E10000C201000000083C
:0601A700E4F509F50AF57C
:0301AD000BF50C43
:0509F300AF82BF05000A
:0309F80050012289
:0E09FB00E5AE20E7FB8FF005F07B017C007D70
:050A0900007E00800CDE
:0C0A0E00EB2BFBEC33FCED33FDEE33FE74
:0A0A1A00D5F0F1EB4209EC420AEDC1
:0A0A2400420BEE420C75AB1FEF2FE2
:090A2E00F5AD75AC0043AE01000A
:060A3700E5AE20E7FB2202
:0101430000BB
:0701440043AE0200020A4075
:030A3D000201446F
:010A40002293
:0E0A4100AD82AE838E0790F085EFF090F086C8
:0E0A4F00EDF090F08774DFF090F08874AFF057
:0B0A5D0090F089E4F090F089E0FFE5E4
:040A68000D250DE566
:0C0A6C000E33FD741F5D420790F089EF0F
:0A0A7800F0E50D25E090F08AF09003
:0C0A8200F08B7412F090F08C7442F07E47
:060A8E00857FF08FD57E8C
:070A9400857FF07F008ED486
:0C0A9B00E5AE20E7FB75AB1FE510C313B0
:0A0AA700FE53063F8EADAE0FE510C2
:0D0AB100C313CE13CE8EAC43D601120A3D06
:050ABE00E5D130E0FB72
:080AC300E5AE54C0600280F8AA
:040ACB0053D1FE22E3
:0E0ACF00AF828FF005F07F017E007D007C007D
:020ADD00800C8B
:0C0ADF00EF2FFFEE33FEED33FDEC33FC97
:0A0AEB00D5F0F1E5095207E50A52C3
:0A0AF50006E50B5205E50C5204EF74
:090AFF004E4D4C60047582012289
:040B080075820022D0
:0E0B0C00AF82C007120ACFE582D00770058FB6
:040B1A00820209F357
:010B1E0022B4
:0C0B1F00AD82AE83AFF0E5140303543F39
:060B2B00FBE5112513E5B6
:0A0B31001235140303543FFA8B043D
:0E0B3B00C3EA9C401C8C82C007C006C005C0E7
:0E0B490004C002120B0CD002D004D005D0065E
:050B5700D0070C80DF57
:040B5C0085110D856D
:030B6000120E85ED
:030B6300130F85E8
:090B660014108D828E838FF002C1
:020B6F000A4139
:060B7100E4F509F50AF5A8
:040B77000BF50C224C
:020B7B007F05F4
:0E0B7D008F057E00C3ED9420EE9400500C8F87
:0B0B8B0082C0071209F3D0070F80E7BB
:010B9600223C
:0E0B9700AF82C3EF648094B0401174B98FF048
:0D0BA50063F08095F04006EF24D0F5822229
:0E0BB200C3EF648094C1401374C68FF063F0EB
:0D0BC0008095F04008EF24BF240AF5822242
:0E0BCD00C3EF648094E1401374E68FF063F090
:0D0BDB008095F04008EF249F240AF5822247
:040BE8007582FF22F1
:0E0BEC00AD82AE83AFF074012DFAE43EFB8FB4
:0E0BFA00048A828B838CF012117CF582C00776
:0E0C0800C006C005120B97AC82D005D006D0F6
:0E0C1600078D828E838FF012117CF582C00450
:0E0C2400120B97AF82D004EFC454F02CF5826F
:010C3200229F
:0E0C3300AD82AE83AFF074022DFAE43EFB8F6B
:0E0C4100048A828B838CF0C007C006C00512A7
:0E0C4F000BECAC82D005D006D0077B008D8266
:0E0C5D008E838FF0C004C003120BECAF82D068
:0E0C6B0003D0048F067F00EF2CF582EE3BF5E0
:020C79008322D4
:0E0C7B00AD82AE83AFF074072DFDE43EFE8D1A
:080C8900828E838FF0020BEC58
:0E0C9100AD82AE83AFF074032DFDE43EFE8D08
:080C9F00828E838FF0020C33FA
:0C0CA700AD82AE83AFF0E52175F002A431
:0E0CB3002409FBE435F0FCEB2DFDEC3EFE8D3C
:080CC100828E838FF0020BEC20
:0E0CC900AD82AE83AFF012117CFCBC3A02800B
:010CD7000418
:040CD80075820122FE
:0E0CDC0074012DFAE43EFB8F048A828B838C18
:0C0CEA00F0C007C006C005120BEC8582AC
:0C0CF60022D005D006D0078D828E838F9F
:0E0D0200F0C007C006C005120C91AA82AB8398
:0E0D1000D005D006D0078D828E838FF0C007ED
:0E0D1E00C006C005C003C002120C7BA982D023
:0C0D2C0002D003D005D006D007E5222439
:070D3800EF50047582052253
:0A0D3F008522218D828E838FF0C083
:0E0D490007C006C005C003C002C001120CA7FF
:0E0D5700D001D002D003D005D006D007E92489
:060D6500FE500EB9220051
:070D6B004005E924DA500401
:040D72007582042260
:0E0D7600E9701174EC2B5008C3E49A74809B52
:020D8400500419
:040D8600758203224D
:050D8A007523007A0052
:0C0D8F00A8227900740528F8E439F98ADC
:0E0D9B00037C00C3EB98EC648089F063F08069
:0E0DA90095F05037EA75F002A42401FBE43502
:0E0DB700F0FCEB2DFBEC3EF98F048B82898360
:0E0DC5008CF0C007C006C005C002120BECACDB
:0C0DD30082D002D005D006D007EC25230A
:050DDF00F5230A80ABC2
:080DE400E52360047582022280
:040DEC0075820022EA
:060DF000AD82AE83AFF0FE
:0E0DF600C007C006C00512092DAC82D005D082
:0E0E040006D007BC3AEC8D828E838FF0743AD4
:050E120012113A7C0101
:030E1700BC2D00EF
:0E0E1A005033C007C006C005C00412092DAB3E
:0E0E280082D004D005D006D0078B02BB0A0290
:020E3600801723
:0E0E38008C030CEB2DF8E43EF98F03888289C1
:090E4600838BF0EA12113A80C816
:070E4F007B000CBC00010B4D
:0E0E5600EC2DFDEB3EFE8D828E838FF0E402CC
:020E6400113A41
:0E0E6600AD82AE83AFF074012DFAE43EFB8F37
:0E0E7400048A828B838CF0C007C006C0051272
:0C0E82000BEC858224D005D006D0078D33
:0E0E8E00828E838FF0C007C006C005120C9143
:0A0E9C00858225858326D005D00647
:0E0EA600D0078D828E838FF0C007C006C00576
:0E0EB400120C7BA982D005D006D007B900022F
:020EC2008001AD
:010EC400220B
:080EC50090F08D74FFF079003C
:0A0ECD00C3E995245039E904F82424
:070ED7008DFAE434F0FB8901
:0C0EDE00218D828E838FF0C007C006C0FB
:0E0EEA0005C003C002C000120CA7AC82D000ED
:0E0EF800D002D003D005D006D0078A828B83AB
:060F0600ECF0880180C13F
:090F0C00E52404248DF582E4348F
:0A0F1500F0F58374FFF0E52530E0ED
:0C0F1F002EAC247F008C828F83A3A3756E
:060F2B001502751600120C
:070F310011988582118583F0
:060F380012E52524FFF57F
:060F3E0013E52634FFF567
:080F44001490F08D75F000021D
:020F4C000B1F79
:0A0F4E00AC247F008C828F83A37512
:060F5800150275160012DF
:070F5E0011988582118583C3
:030F6500128525CD
:030F6800138526C8
:080F6B001490F08E75F00002F5
:020F73000B1F52
:0D0F7500E582FF24F6400674302FF582223D
:0B0F8200EF24F0400674372FF58222A8
:040F8D007582212226
:0E0F9100AD82AE83AFF074012DFAE43EFB8F0B
:0C0F9F0004740F5527F582C007C006C07F
:0E0FAB0005C004C003C002120F75A982D00257
:0E0FB900D003D0048A828B838CF0E912113AA7
:0C0FC700E527C4540FFC740F5CF5821287
:0E0FD3000F75AC82D005D006D0078D828E83BC
:060FE1008FF0EC02113A52
:0E0FE700AD82AE83AFF074022DFAE43EFB8FB4
:0A0FF50004A82888278A828B838CC9
:0E0FFF00F0C007C006C005120F91D005D00645
:0A100D00D0078529278D828E838F7E
:04101700F0020F9143
:08101B00AE82AF83AC2AAD2BBD
:0C102300C3EC9410ED940050030211196E
:0A102F0090F0CE743AF0752710908F
:0E103900F0CF75F000C007C006C005C004125D
:0E1047000F91D004D005D006D0078E028F0383
:051055008A288B2990A0
:0E105A00F0D175F000C007C006C005C004C08C
:0E10680003C002120FE7D002D0038A007410FA
:08107600282BF52D75270090D1
:0E107E00F0D575F000120F91D004D005D00609
:04108C00D0077B000E
:03109000BB100092
:0C109300503FEB2EF582E43FF583E0F5C2
:04109F002C252DF5DA
:0A10A3002DEB2B240924CEF8E434D1
:0610AD00F0F97A00852C29
:0C10B30027888289838AF0C007C006C02D
:0E10BF0005C004C003120F91D003D004D00569
:0710CD00D006D0070B80BC28
:0710D400C3E4952DF5279000
:0E10DB00F0F775F000C007C006C005C0041293
:0910E9000F9190F0F9740AF090E7
:0B10F200F0FAE4F090F0CE75F0001270
:0E10FD0009C6D004D005D006D00774102EFE10
:0E110B00E43FFFEC24F0FCED34FFFD02102366
:091119009011D475F0800209C6A2
:0D11D4003A303030303030303146460A00BD
:0611220043FE02C291220F
:03112800D291223F
:03112B00C291224C
:06112E0043FE01D29022F5
:06113400C29053FEFE22F2
:0E00AA001201100102000020FEFF0A001000EB
:0E00B8000102030109024300020100C03209E7
:0E00C6000400000102020100052400100105E3
:0E00D400240101010424020205240600010794
:0E00E20005810308000A09040100020A00005B
:0E00F0000007050402400000070585024000DD
:0E00FE00000403090410034A006F0062007939
:0E010C00004700500053001C03430043002036
:0E011A000042006F006F0074006C006F006107
:0E012800006400650072000E033000300030ED
:08013600003000300031000030
:06017A00E478FFF6D8FD59
:080158007907E94400601B7AFD
:05016000019011E1789F
:030165000075938F
:0A01680000E493F2A308B8000205BA
:0801720093D9F4DAF27593FF52
:0E113A0020F71030F6118883A88220F507F602
:05114800A8837583007F
:01114D00227F
:03114E00F280F735
:02115100F0228A
:051153007A10E4FBFC32
:0E115800E58225E0F582E58333F583EB33FB7A
:0A116600EC33FCEB9515F5F0EC9569
:09117000164006FCABF0438201BD
:03117900DADD229A
:080180007800E84400600A79F0
:030188000075936C
:06018B00F0E4F309D8FCCA
:0801910078FBE84400600C79E2
:0B0199000190F000E4F0A3D8FCD9FABC
:03014B0075812D8E
:0A014E001211D0E582600302013EA9
:0E117C0020F71430F6148883A88220F507E6C9
:06118A00A883758300221A
:03119000E280F703
:03119300E49322C0
:02119600E02255
:0E119800C2D5E58330E70DD2D5E4C39582F5CC
:0611A60082E49583F5834D
:0A11AC00E51630E70DB2D5E4C39557
:0511B60015F515E4959C
:0311BB0016F51610
:0E11BE0012115330D50BE4C39582F582E495EF
:0311CC0083F58325
:0111CF0022FD
:0411D0007582002202
:00000001FF
